:100000000004001001010000D5000000D70000002E
:1000100000000000000000000000000000000000E0
:1000200000000000000000000000000000000000D0
:100030000000000000000000D9000000DB0000000C
:10004000DD000000DD00000000000000DD00000019
:10005000DD000000DD0000000000000000000000E6
:10006000DD000000DD000000C1060000DD00000032
:10007000DD000000DD00000000000000DD000000E9
:100080000000000000000000000000000000000070
:100090000000000000000000000000000000000060
:1000A000850A0000950A0000A50A0000DD00000096
:1000B000B50A0000C50A0000D50A0000E50A0000E4
:1000C000E80D000000000010040000000400001013
:1000D00084000000FEE7FEE7FEE7FEE7FEE7002300
:1000E00010B5934203D21C585C500433F9E710BD9D
:1000F00000231A008B4202D21A500433FAE77047E9
:1001000010B50C4C0C4B9C4206D2A268616820686A
:10011000FFF7E5FF0C34F5E7084B9C4205D2616818
:100120002068FFF7E5FF0834F6E700F04BFB00F02E
:1001300031FDFEE7C0000000CC000000D40000004C
:10014000FEE7C046FFFFFFFFFFFFFFFFFFFFFFFFD0
:10015000FFFFFFFFFFFFFFFFFFFFFFFFFFFFFFFFAF
:10016000FFFFFFFFFFFFFFFFFFFFFFFFFFFFFFFF9F
:10017000FFFFFFFFFFFFFFFFFFFFFFFFFFFFFFFF8F
:10018000FFFFFFFFFFFFFFFFFFFFFFFFFFFFFFFF7F
:10019000FFFFFFFFFFFFFFFFFFFFFFFFFFFFFFFF6F
:1001A000FFFFFFFFFFFFFFFFFFFFFFFFFFFFFFFF5F
:1001B000FFFFFFFFFFFFFFFFFFFFFFFFFFFFFFFF4F
:1001C000FFFFFFFFFFFFFFFFFFFFFFFFFFFFFFFF3F
:1001D000FFFFFFFFFFFFFFFFFFFFFFFFFFFFFFFF2F
:1001E000FFFFFFFFFFFFFFFFFFFFFFFFFFFFFFFF1F
:1001F000FFFFFFFFFFFFFFFFFFFFFFFFFFFFFFFF0F
:10020000FFFFFFFFFFFFFFFFFFFFFFFFFFFFFFFFFE
:10021000FFFFFFFFFFFFFFFFFFFFFFFFFFFFFFFFEE
:10022000FFFFFFFFFFFFFFFFFFFFFFFFFFFFFFFFDE
:10023000FFFFFFFFFFFFFFFFFFFFFFFFFFFFFFFFCE
:10024000FFFFFFFFFFFFFFFFFFFFFFFFFFFFFFFFBE
:10025000FFFFFFFFFFFFFFFFFFFFFFFFFFFFFFFFAE
:10026000FFFFFFFFFFFFFFFFFFFFFFFFFFFFFFFF9E
:10027000FFFFFFFFFFFFFFFFFFFFFFFFFFFFFFFF8E
:10028000FFFFFFFFFFFFFFFFFFFFFFFFFFFFFFFF7E
:10029000FFFFFFFFFFFFFFFFFFFFFFFFFFFFFFFF6E
:1002A000FFFFFFFFFFFFFFFFFFFFFFFFFFFFFFFF5E
:1002B000FFFFFFFFFFFFFFFFFFFFFFFFFFFFFFFF4E
:1002C000FFFFFFFFFFFFFFFFFFFFFFFFFFFFFFFF3E
:1002D000FFFFFFFFFFFFFFFFFFFFFFFFFFFFFFFF2E
:1002E000FFFFFFFFFFFFFFFFFFFFFFFFFFFFFFFF1E
:1002F000FFFFFFFFFFFFFFFFFFFFFFFFFFFFFFFF0E
:100300000300303BDAB2092A09D9113B052B08D981
:100310000200613A0023052A01D80300573B180068
:1003200070470A33FBE7C046F8B5070000F058FCF9
:10033000451E380000247D19002600F051FC84423F
:1003400016D2013D6878FFF7DBFF002C12DD012C8F
:1003500015D000231022611E013312019942FBD1F6
:10036000504301343618380000F03AFC8442E8D398
:100370003000F8BD0122504301343618F3E7102253
:10038000504301343618EEE710B500220221002058
:1003900000F0B0FB00220321002000F0ABFB0120A5
:1003A00000F0C4F900220221002000F0A3FB01228A
:1003B0000321002000F09EFB012000F0B7F910BDE2
:1003C00010B501220221002000F094FB012203213C
:1003D000002000F08FFB012000F0A8F9002202218C
:1003E000002000F087FB01220321002000F082FBA7
:1003F000012000F09BF910BD10B500220221002061
:1004000000F078FB01220321002000F073FB0120A3
:1004100000F08CF910BDC04610B50022022100206A
:1004200000F068FB01220321002000F063FB0A209A
:1004300000F07CF910BDC0460023F0B530220D005D
:1004400085B001AC2372E2540133082BFBD1013B90
:1004500001213127302608E0C20F1018E654401061
:10046000002B0AD0002808D0013B0142F4D0C20F73
:100470001018E7544010002BF4D1200000F0B0FB1E
:100480000023072803DD635D313B584243411800D8
:1004900005B0F0BDF8B505000E001700002404E01B
:1004A0000134FFF771FF082C0AD021003800FFF754
:1004B000C3FF0128F4D10134FFF782FF082CF4D1E7
:1004C000002404E00134FFF75FFF082C0AD021006C
:1004D0003000FFF7B1FF0128F4D10134FFF770FFBE
:1004E000082CF4D1002404E00134FFF74DFF082C60
:1004F0000AD021002800FFF79FFF0128F4D1013422
:10050000FFF75EFF082CF4D1F8BDC046F0B585B00A
:10051000027901AB1A70427981795A70002202ADDA
:100520002970C17903AC6970017AAA702170417A8F
:1005300018006170A2709A70FFF7F6FE060028009E
:10054000FFF7F2FE05002000FFF7EEFE0324070090
:10055000002200210020013CFFF79CFF002CF7D176
:10056000FFF74AFFFA20400000F0E0F803343A00B9
:1005700029003000013CFFF78DFF002CF7D1FFF779
:100580003BFF05B0F0BDC04610B50022022100209F
:1005900000F0B0FA01220321002000F0ABFAFFF7CF
:1005A0003BFF0A2000F0C2F810BDC046F0B55F4620
:1005B00056464D46E0B486B000F0C2F88023374975
:1005C0000020CA5800261A43CA50354B354A4121EB
:1005D0001A60E022494252009950C03AFF3A433132
:1005E00000F0AAFA01220321002000F0A5FA9620CB
:1005F000800100F0F3F82C4800F072F8FFF7C4FF18
:100600002A4800F049F92A4B03AC1800994600F03B
:1006100043F9284B284F9B46284B9A460023E65423
:1006200001330B2BFBD1002500F028F90028FBD06B
:1006300000F02CF960552000013500F0D1FA0928AE
:1006400011DC200000F0CCFA0028EDDD0122390099
:10065000200000F0EFFA0028E6D00023E654013332
:100660000B2BFBD1DAE7584600F016F9200000F01A
:1006700013F9484600F010F92100042201A800F007
:1006800003FB6B46514601A81E7200F087FA002852
:10069000C4D12000FFF73AFFC0E7C0460080044005
:1006A00000C000400400FFFFE02E00005C0D0000D1
:1006B000700D0000740D0000880D0000800D00001A
:1006C0000122054BD9680A4204D0DA60034A136854
:1006D000013313607047C046004000400400001022
:1006E000802210B580240D4BE40099582143995085
:1006F00059689143596059680A435A600022802121
:10070000074B09061A60074B18601A680A431A60FB
:1007100001229A60044B1C6010BDC046008004405A
:10072000040000100040004000E100E00023034A04
:10073000136013688342FCD37047C0460400001066
:100740001C4B10B55B6A0020DB051B0F013B0E2B19
:1007500002D8194A9B0098580324164A516A136F0D
:100760002340022B1CD0032B0FD0012B07D01348A2
:10077000104B996F00F0B7FA114B186010BD136C55
:1007800000201C40022CF3D0F1E7116C0B40022B2F
:100790000DD01F2093681840084B01305843E7E7FD
:1007A0003E2349001940023100F09DFAE0E70020A5
:1007B000DEE7C046008004408C0D0000001BB7003F
:1007C000000000108022034903488B5803438B50DC
:1007D0007047C0460080044080000400F0B55746D2
:1007E0004E4645469423E0B4012708221F4C90460C
:1007F000E7501F4B4146994680234A46D1508021FD
:10080000E258C9010A43E25042466368194D9343D6
:1008100063606368824613436360042301002B60B6
:10082000154800F060FAF023FF2201382862E250F8
:10083000E058296AE658104B0130584353460131BD
:100840004B43190000F04FFAF643F4238019E050AF
:1008500082231B01AB6042464B461A602B681F4344
:100860002F601CBC90469946A246F0BD0080044013
:1008700000E100E000400640B0710B000120024B97
:100880009B6818407047C04600400640014B5869BD
:10089000C0B270470040064010B50478002C0AD062
:1008A0000422064901308B681A42FCD0034BDC61FC
:1008B0000478002CF6D1002010BDC0460040064050
:1008C00080B584B000AF7860684B7A689200D358E6
:1008D000591C664B7A689200D150654B9B6A012285
:1008E000134061D0624B196B7A6813005B009B1850
:1008F0000833D9400B0007221340FB60FB68072B2D
:1009000050D8FB689A005B4BD3181B689F465A4B24
:100910007A689200D358591C574B7A689200D1508C
:1009200041E0534BDB6901217A6891400A00134092
:100930000FD04F4B01217A6891400A00DA614F4B8A
:100940007A689200D358591C4C4B7A689200D15067
:100950000EE0474B01217A6891400A001A62484B29
:100960007A689200D358591C454B7A689200D1504E
:100970003F4BDB6ABB603E4BBA68DA6213E03F4B29
:100980007A689200D358591C3C4B7A689200D15037
:100990003B4B7A689200D358591C394B7A689200C5
:1009A000D15000E0C0465DE0314B5B6A01217A68BE
:1009B00091400A00134055D02D4B1B6801217A68E5
:1009C00091400A00134009D02B4B7A689200D3580B
:1009D000591C294B7A689200D15043E0244BDB69C3
:1009E00001217A6891400A00134016D0204B5B68C1
:1009F00001217A6891400A0013400ED01F4B7A689B
:100A00009200D358591C1D4B7A689200D150184B54
:100A100001217A6891400A00DA61154B1B6A0121B5
:100A20007A6891400A00134016D0114B1B690121CE
:100A30007A6891400A0013400ED0114B7A689200F8
:100A4000D358591C0E4B7A689200D150084B0121A3
:100A50007A6891400A001A62054B01217A68914038
:100A60000A005A62BD4604B080BDC04608000010AE
:100A7000004000A0C80D0000280000104800001031
:100A80006800001080B500AF0020FFF719FFC046D6
:100A9000BD4680BD80B500AF0120FFF711FFC04605
:100AA000BD4680BD80B500AF0220FFF709FFC046FC
:100AB000BD4680BD80B500AF0420FFF701FFC046F2
:100AC000BD4680BD80B500AF0520FFF7F9FEC046EA
:100AD000BD4680BD80B500AF0620FFF7F1FEC046E1
:100AE000BD4680BD80B500AF0720FFF7E9FEC046D8
:100AF000BD4680BD80B584B000AFF860B9607A6053
:100B00007B68002B0AD0A0231A060121BB689940FC
:100B10000B00190088239B01D1500AE0A0231A067C
:100B20000121BB6899400B0019008A239B01D15019
:100B3000C046BD4604B080BD80B584B000AFF8604B
:100B4000B9607A607B68002B0FD0A0231A06A0231F
:100B5000190680239B01CB580120B9688840010009
:100B6000194380239B01D15010E0A0231A06A02333
:100B7000190680239B01CB580120B96888400100E9
:100B8000C943194080239B01D150C046BD4604B0E3
:100B900080BDC04610B5FFF709FD10BD03000B4333
:100BA00010B59B070CD10C4C02680B689A4207D118
:100BB0000A4BD3189343234202D104300431F3E7A4
:100BC0000022835C8C5CA34201D0181B03E001323D
:100BD000002BF6D1180010BD80808080FFFEFEFE45
:100BE000032210B5431C104206D00130411E097883
:100BF0000029F8D1C01A18E00C4C02680C495118B1
:100C00009143214201D10430F7E7D4B2411C002CBA
:100C10000AD0FF242402811C224205D0FF24240490
:100C2000C11C224200D0011DC81A10BD80808080E6
:100C3000FFFEFEFE03000B4330B59B070FD1104DA6
:100C4000032A0CD904680B689C4208D10D4BE318A9
:100C5000A3432B4203D104300431043AF0E70024CB
:100C6000A2420AD0035D0D5DAB4201D0581B05E0E6
:100C70000134002BF4D1180000E0002030BDC04644
:100C800080808080FFFEFEFE70B504000C430300F0
:100C9000A4070CD1104E032A09D90D680F4C2C194A
:100CA000AC43344203D120C30431043AF3E7013AA0
:100CB000541C0FD00C7801335D1E2C700131551E71
:100CC000002C05D19A18934204D01C700133FAE726
:100CD0002A00EDE770BDC04680808080FFFEFEFEEA
:100CE00003000B4321D4002931D00122D20703098C
:100CF00001E0090112099942FBD9430801E04900CA
:100D000052089942FBD900E04908401A07D35241E2
:100D1000FAD301461046704749084018F7D2921896
:100D2000FAD34018014610467047CB0F00D0494215
:100D3000021000D54042534008B5FFF7D4FF0CBC69
:100D4000521000D34042002A00D549421847F446C9
:100D5000002000F001F860477047FFFF234D6169F4
:100D60006E2D5374617274203936303000000000EB
:100D70000A0D0000726561646275663D0000000046
:100D80007267623D000000007200000020A10700B1
:100D900000350C00E0C81000C05C1500006A1800A7
:100DA00040771B0080841E00C0912100009F24001A
:100DB00040AC2700E032290020402C00604D2F007D
:100DC00000D4300040E13300A409000022090000F3
:100DD00022090000220900000E0900000E0900008F
:080DE000A40900007E090000D7
:040DE800001BB70035
:0400000300000101F7
:00000001FF
